{
	"packages/hardhat/contracts/S33DB4NK/S33DxCH4NG3Factory.sol": {
		"S33DxCH4NG3Factory": {
			"abi": [
				{
					"inputs": [
						{
							"internalType": "address",
							"name": "exchangeImplementation",
							"type": "address"
						}
					],
					"stateMutability": "nonpayable",
					"type": "constructor"
				},
				{
					"anonymous": false,
					"inputs": [
						{
							"indexed": true,
							"internalType": "address",
							"name": "exchangeAddress",
							"type": "address"
						},
						{
							"indexed": true,
							"internalType": "uint256",
							"name": "sproutId",
							"type": "uint256"
						}
					],
					"name": "ExchangeCreated",
					"type": "event"
				},
				{
					"inputs": [
						{
							"internalType": "uint256",
							"name": "sproutId",
							"type": "uint256"
						}
					],
					"name": "createExchange",
					"outputs": [],
					"stateMutability": "nonpayable",
					"type": "function"
				},
				{
					"inputs": [
						{
							"internalType": "uint256",
							"name": "",
							"type": "uint256"
						}
					],
					"name": "getExchange",
					"outputs": [
						{
							"internalType": "address",
							"name": "",
							"type": "address"
						}
					],
					"stateMutability": "view",
					"type": "function"
				}
			],
			"devdoc": {
				"kind": "dev",
				"methods": {},
				"version": 1
			},
			"evm": {
				"assembly": "    /* \"packages/hardhat/contracts/S33DB4NK/S33DxCH4NG3Factory.sol\":187:890  contract S33DxCH4NG3Factory {... */\n  mstore(0x40, 0x80)\n    /* \"packages/hardhat/contracts/S33DB4NK/S33DxCH4NG3Factory.sol\":406:515  constructor(address exchangeImplementation) {... */\n  callvalue\n  dup1\n  iszero\n  tag_1\n  jumpi\n  0x00\n  dup1\n  revert\ntag_1:\n  pop\n  mload(0x40)\n  sub(codesize, bytecodeSize)\n  dup1\n  bytecodeSize\n  dup4\n  codecopy\n  dup2\n  add\n  0x40\n  dup2\n  swap1\n  mstore\n  tag_2\n  swap2\n  tag_3\n  jump\t// in\ntag_2:\n    /* \"packages/hardhat/contracts/S33DB4NK/S33DxCH4NG3Factory.sol\":460:483  _exchangeImplementation */\n  0x00\n    /* \"packages/hardhat/contracts/S33DB4NK/S33DxCH4NG3Factory.sol\":460:508  _exchangeImplementation = exchangeImplementation */\n  dup1\n  sload\n  not(sub(shl(0xa0, 0x01), 0x01))\n  and\n  sub(shl(0xa0, 0x01), 0x01)\n  swap3\n  swap1\n  swap3\n  and\n  swap2\n  swap1\n  swap2\n  or\n  swap1\n  sstore\n    /* \"packages/hardhat/contracts/S33DB4NK/S33DxCH4NG3Factory.sol\":187:890  contract S33DxCH4NG3Factory {... */\n  jump(tag_7)\n    /* \"#utility.yul\":14:304   */\ntag_3:\n    /* \"#utility.yul\":84:90   */\n  0x00\n    /* \"#utility.yul\":137:139   */\n  0x20\n    /* \"#utility.yul\":125:134   */\n  dup3\n    /* \"#utility.yul\":116:123   */\n  dup5\n    /* \"#utility.yul\":112:135   */\n  sub\n    /* \"#utility.yul\":108:140   */\n  slt\n    /* \"#utility.yul\":105:157   */\n  iszero\n  tag_9\n  jumpi\n    /* \"#utility.yul\":153:154   */\n  0x00\n    /* \"#utility.yul\":150:151   */\n  dup1\n    /* \"#utility.yul\":143:155   */\n  revert\n    /* \"#utility.yul\":105:157   */\ntag_9:\n    /* \"#utility.yul\":179:195   */\n  dup2\n  mload\n  sub(shl(0xa0, 0x01), 0x01)\n    /* \"#utility.yul\":224:255   */\n  dup2\n  and\n    /* \"#utility.yul\":214:256   */\n  dup2\n  eq\n    /* \"#utility.yul\":204:274   */\n  tag_10\n  jumpi\n    /* \"#utility.yul\":270:271   */\n  0x00\n    /* \"#utility.yul\":267:268   */\n  dup1\n    /* \"#utility.yul\":260:272   */\n  revert\n    /* \"#utility.yul\":204:274   */\ntag_10:\n    /* \"#utility.yul\":293:298   */\n  swap4\n    /* \"#utility.yul\":14:304   */\n  swap3\n  pop\n  pop\n  pop\n  jump\t// out\ntag_7:\n    /* \"packages/hardhat/contracts/S33DB4NK/S33DxCH4NG3Factory.sol\":187:890  contract S33DxCH4NG3Factory {... */\n  dataSize(sub_0)\n  dup1\n  dataOffset(sub_0)\n  0x00\n  codecopy\n  0x00\n  return\nstop\n\nsub_0: assembly {\n        /* \"packages/hardhat/contracts/S33DB4NK/S33DxCH4NG3Factory.sol\":187:890  contract S33DxCH4NG3Factory {... */\n      mstore(0x40, 0x80)\n      callvalue\n      dup1\n      iszero\n      tag_1\n      jumpi\n      0x00\n      dup1\n      revert\n    tag_1:\n      pop\n      jumpi(tag_2, lt(calldatasize, 0x04))\n      shr(0xe0, calldataload(0x00))\n      dup1\n      0x0b9d5847\n      eq\n      tag_3\n      jumpi\n      dup1\n      0xb1f6ca75\n      eq\n      tag_4\n      jumpi\n    tag_2:\n      0x00\n      dup1\n      revert\n        /* \"packages/hardhat/contracts/S33DB4NK/S33DxCH4NG3Factory.sol\":266:312  mapping(uint256 => address) public getExchange */\n    tag_3:\n      tag_5\n      tag_6\n      calldatasize\n      0x04\n      tag_7\n      jump\t// in\n    tag_6:\n      mstore(0x20, 0x01)\n      0x00\n      swap1\n      dup2\n      mstore\n      0x40\n      swap1\n      keccak256\n      sload\n      0xffffffffffffffffffffffffffffffffffffffff\n      and\n      dup2\n      jump\n    tag_5:\n      mload(0x40)\n        /* \"#utility.yul\":375:417   */\n      0xffffffffffffffffffffffffffffffffffffffff\n        /* \"#utility.yul\":363:418   */\n      swap1\n      swap2\n      and\n        /* \"#utility.yul\":345:419   */\n      dup2\n      mstore\n        /* \"#utility.yul\":333:335   */\n      0x20\n        /* \"#utility.yul\":318:336   */\n      add\n        /* \"packages/hardhat/contracts/S33DB4NK/S33DxCH4NG3Factory.sol\":266:312  mapping(uint256 => address) public getExchange */\n      mload(0x40)\n      dup1\n      swap2\n      sub\n      swap1\n      return\n        /* \"packages/hardhat/contracts/S33DB4NK/S33DxCH4NG3Factory.sol\":521:888  function createExchange(uint256 sproutId) external {... */\n    tag_4:\n      tag_11\n      tag_12\n      calldatasize\n      0x04\n      tag_7\n      jump\t// in\n    tag_12:\n      tag_13\n      jump\t// in\n    tag_11:\n      stop\n    tag_13:\n        /* \"packages/hardhat/contracts/S33DB4NK/S33DxCH4NG3Factory.sol\":623:624  0 */\n      0x00\n        /* \"packages/hardhat/contracts/S33DB4NK/S33DxCH4NG3Factory.sol\":590:611  getExchange[sproutId] */\n      dup2\n      dup2\n      mstore\n        /* \"packages/hardhat/contracts/S33DB4NK/S33DxCH4NG3Factory.sol\":590:601  getExchange */\n      0x01\n        /* \"packages/hardhat/contracts/S33DB4NK/S33DxCH4NG3Factory.sol\":590:611  getExchange[sproutId] */\n      0x20\n      mstore\n      0x40\n      swap1\n      keccak256\n      sload\n        /* \"packages/hardhat/contracts/S33DB4NK/S33DxCH4NG3Factory.sol\":590:625  getExchange[sproutId] == address(0) */\n      0xffffffffffffffffffffffffffffffffffffffff\n        /* \"packages/hardhat/contracts/S33DB4NK/S33DxCH4NG3Factory.sol\":590:611  getExchange[sproutId] */\n      and\n        /* \"packages/hardhat/contracts/S33DB4NK/S33DxCH4NG3Factory.sol\":590:625  getExchange[sproutId] == address(0) */\n      iszero\n        /* \"packages/hardhat/contracts/S33DB4NK/S33DxCH4NG3Factory.sol\":582:645  require(getExchange[sproutId] == address(0), \"Exchange exists\") */\n      tag_15\n      jumpi\n      mload(0x40)\n      0x08c379a000000000000000000000000000000000000000000000000000000000\n      dup2\n      mstore\n        /* \"#utility.yul\":632:634   */\n      0x20\n        /* \"packages/hardhat/contracts/S33DB4NK/S33DxCH4NG3Factory.sol\":582:645  require(getExchange[sproutId] == address(0), \"Exchange exists\") */\n      0x04\n      dup3\n      add\n        /* \"#utility.yul\":614:635   */\n      mstore\n        /* \"#utility.yul\":671:673   */\n      0x0f\n        /* \"#utility.yul\":651:669   */\n      0x24\n      dup3\n      add\n        /* \"#utility.yul\":644:674   */\n      mstore\n        /* \"#utility.yul\":710:727   */\n      0x45786368616e6765206578697374730000000000000000000000000000000000\n        /* \"#utility.yul\":690:708   */\n      0x44\n      dup3\n      add\n        /* \"#utility.yul\":683:728   */\n      mstore\n        /* \"#utility.yul\":745:763   */\n      0x64\n      add\n        /* \"packages/hardhat/contracts/S33DB4NK/S33DxCH4NG3Factory.sol\":582:645  require(getExchange[sproutId] == address(0), \"Exchange exists\") */\n    tag_16:\n      mload(0x40)\n      dup1\n      swap2\n      sub\n      swap1\n      revert\n    tag_15:\n        /* \"packages/hardhat/contracts/S33DB4NK/S33DxCH4NG3Factory.sol\":655:678  address exchangeAddress */\n      0x00\n        /* \"packages/hardhat/contracts/S33DB4NK/S33DxCH4NG3Factory.sol\":694:717  _exchangeImplementation */\n      dup1\n      sload\n        /* \"packages/hardhat/contracts/S33DB4NK/S33DxCH4NG3Factory.sol\":681:718  Clones.clone(_exchangeImplementation) */\n      tag_18\n      swap1\n        /* \"packages/hardhat/contracts/S33DB4NK/S33DxCH4NG3Factory.sol\":694:717  _exchangeImplementation */\n      0xffffffffffffffffffffffffffffffffffffffff\n      and\n        /* \"packages/hardhat/contracts/S33DB4NK/S33DxCH4NG3Factory.sol\":681:693  Clones.clone */\n      tag_19\n        /* \"packages/hardhat/contracts/S33DB4NK/S33DxCH4NG3Factory.sol\":681:718  Clones.clone(_exchangeImplementation) */\n      jump\t// in\n    tag_18:\n        /* \"packages/hardhat/contracts/S33DB4NK/S33DxCH4NG3Factory.sol\":728:775  IExchange(exchangeAddress).initialize(sproutId) */\n      mload(0x40)\n      0xfe4b84df00000000000000000000000000000000000000000000000000000000\n      dup2\n      mstore\n      0x04\n      dup2\n      add\n        /* \"#utility.yul\":920:945   */\n      dup5\n      swap1\n      mstore\n        /* \"packages/hardhat/contracts/S33DB4NK/S33DxCH4NG3Factory.sol\":655:718  address exchangeAddress = Clones.clone(_exchangeImplementation) */\n      swap1\n      swap2\n      pop\n        /* \"packages/hardhat/contracts/S33DB4NK/S33DxCH4NG3Factory.sol\":728:765  IExchange(exchangeAddress).initialize */\n      0xffffffffffffffffffffffffffffffffffffffff\n      dup3\n      and\n      swap1\n      0xfe4b84df\n      swap1\n        /* \"#utility.yul\":893:911   */\n      0x24\n      add\n        /* \"packages/hardhat/contracts/S33DB4NK/S33DxCH4NG3Factory.sol\":728:775  IExchange(exchangeAddress).initialize(sproutId) */\n      0x00\n      mload(0x40)\n      dup1\n      dup4\n      sub\n      dup2\n      0x00\n      dup8\n      dup1\n      extcodesize\n      iszero\n      dup1\n      iszero\n      tag_22\n      jumpi\n      0x00\n      dup1\n      revert\n    tag_22:\n      pop\n      gas\n      call\n      iszero\n      dup1\n      iszero\n      tag_24\n      jumpi\n      returndatasize\n      0x00\n      dup1\n      returndatacopy\n      revert(0x00, returndatasize)\n    tag_24:\n      pop\n      pop\n      pop\n        /* \"packages/hardhat/contracts/S33DB4NK/S33DxCH4NG3Factory.sol\":785:806  getExchange[sproutId] */\n      0x00\n      dup4\n      dup2\n      mstore\n        /* \"packages/hardhat/contracts/S33DB4NK/S33DxCH4NG3Factory.sol\":785:796  getExchange */\n      0x01\n        /* \"packages/hardhat/contracts/S33DB4NK/S33DxCH4NG3Factory.sol\":785:806  getExchange[sproutId] */\n      0x20\n      mstore\n      0x40\n      dup1\n      dup3\n      keccak256\n        /* \"packages/hardhat/contracts/S33DB4NK/S33DxCH4NG3Factory.sol\":785:824  getExchange[sproutId] = exchangeAddress */\n      dup1\n      sload\n      0xffffffffffffffffffffffff0000000000000000000000000000000000000000\n      and\n      0xffffffffffffffffffffffffffffffffffffffff\n      dup7\n      and\n      swap1\n      dup2\n      or\n      swap1\n      swap2\n      sstore\n        /* \"packages/hardhat/contracts/S33DB4NK/S33DxCH4NG3Factory.sol\":839:881  ExchangeCreated(exchangeAddress, sproutId) */\n      swap1\n      mload\n        /* \"packages/hardhat/contracts/S33DB4NK/S33DxCH4NG3Factory.sol\":785:806  getExchange[sproutId] */\n      dup6\n      swap4\n      pop\n        /* \"packages/hardhat/contracts/S33DB4NK/S33DxCH4NG3Factory.sol\":785:824  getExchange[sproutId] = exchangeAddress */\n      swap1\n      swap2\n        /* \"packages/hardhat/contracts/S33DB4NK/S33DxCH4NG3Factory.sol\":839:881  ExchangeCreated(exchangeAddress, sproutId) */\n      0xe80b559cc46e6c0e51671c54b80c5558a517894ed00e34777fddfcfaf99a21b1\n      swap2\n      log3\n        /* \"packages/hardhat/contracts/S33DB4NK/S33DxCH4NG3Factory.sol\":572:888  {... */\n      pop\n        /* \"packages/hardhat/contracts/S33DB4NK/S33DxCH4NG3Factory.sol\":521:888  function createExchange(uint256 sproutId) external {... */\n      pop\n      jump\t// out\n        /* \"@openzeppelin/contracts/proxy/Clones.sol\":973:1732  function clone(address implementation) internal returns (address instance) {... */\n    tag_19:\n        /* \"@openzeppelin/contracts/proxy/Clones.sol\":1030:1046  address instance */\n      0x00\n        /* \"@openzeppelin/contracts/proxy/Clones.sol\":1362:1410  0x3d602d80600a3d3981f3363d3d373d3d3d363d73000000 */\n      0x3d602d80600a3d3981f3363d3d373d3d3d363d73000000\n        /* \"@openzeppelin/contracts/proxy/Clones.sol\":1344:1358  implementation */\n      dup3\n        /* \"@openzeppelin/contracts/proxy/Clones.sol\":1338:1342  0x60 */\n      0x60\n        /* \"@openzeppelin/contracts/proxy/Clones.sol\":1334:1359  shl(0x60, implementation) */\n      shl\n        /* \"@openzeppelin/contracts/proxy/Clones.sol\":1328:1332  0xe8 */\n      0xe8\n        /* \"@openzeppelin/contracts/proxy/Clones.sol\":1324:1360  shr(0xe8, shl(0x60, implementation)) */\n      shr\n        /* \"@openzeppelin/contracts/proxy/Clones.sol\":1321:1411  or(shr(0xe8, shl(0x60, implementation)), 0x3d602d80600a3d3981f3363d3d373d3d3d363d73000000) */\n      or\n        /* \"@openzeppelin/contracts/proxy/Clones.sol\":1315:1319  0x00 */\n      0x00\n        /* \"@openzeppelin/contracts/proxy/Clones.sol\":1308:1412  mstore(0x00, or(shr(0xe8, shl(0x60, implementation)), 0x3d602d80600a3d3981f3363d3d373d3d3d363d73000000)) */\n      mstore\n        /* \"@openzeppelin/contracts/proxy/Clones.sol\":1569:1601  0x5af43d82803e903d91602b57fd5bf3 */\n      0x5af43d82803e903d91602b57fd5bf3\n        /* \"@openzeppelin/contracts/proxy/Clones.sol\":1552:1566  implementation */\n      dup3\n        /* \"@openzeppelin/contracts/proxy/Clones.sol\":1546:1550  0x78 */\n      0x78\n        /* \"@openzeppelin/contracts/proxy/Clones.sol\":1542:1567  shl(0x78, implementation) */\n      shl\n        /* \"@openzeppelin/contracts/proxy/Clones.sol\":1539:1602  or(shl(0x78, implementation), 0x5af43d82803e903d91602b57fd5bf3) */\n      or\n        /* \"@openzeppelin/contracts/proxy/Clones.sol\":1533:1537  0x20 */\n      0x20\n        /* \"@openzeppelin/contracts/proxy/Clones.sol\":1526:1603  mstore(0x20, or(shl(0x78, implementation), 0x5af43d82803e903d91602b57fd5bf3)) */\n      mstore\n        /* \"@openzeppelin/contracts/proxy/Clones.sol\":1644:1648  0x37 */\n      0x37\n        /* \"@openzeppelin/contracts/proxy/Clones.sol\":1638:1642  0x09 */\n      0x09\n        /* \"@openzeppelin/contracts/proxy/Clones.sol\":1635:1636  0 */\n      0x00\n        /* \"@openzeppelin/contracts/proxy/Clones.sol\":1628:1649  create(0, 0x09, 0x37) */\n      create\n        /* \"@openzeppelin/contracts/proxy/Clones.sol\":1616:1649  instance := create(0, 0x09, 0x37) */\n      swap1\n      pop\n        /* \"@openzeppelin/contracts/proxy/Clones.sol\":1676:1698  instance != address(0) */\n      0xffffffffffffffffffffffffffffffffffffffff\n      dup2\n      and\n        /* \"@openzeppelin/contracts/proxy/Clones.sol\":1668:1725  require(instance != address(0), \"ERC1167: create failed\") */\n      tag_26\n      jumpi\n      mload(0x40)\n      0x08c379a000000000000000000000000000000000000000000000000000000000\n      dup2\n      mstore\n        /* \"#utility.yul\":1158:1160   */\n      0x20\n        /* \"@openzeppelin/contracts/proxy/Clones.sol\":1668:1725  require(instance != address(0), \"ERC1167: create failed\") */\n      0x04\n      dup3\n      add\n        /* \"#utility.yul\":1140:1161   */\n      mstore\n        /* \"#utility.yul\":1197:1199   */\n      0x16\n        /* \"#utility.yul\":1177:1195   */\n      0x24\n      dup3\n      add\n        /* \"#utility.yul\":1170:1200   */\n      mstore\n        /* \"#utility.yul\":1236:1260   */\n      0x455243313136373a20637265617465206661696c656400000000000000000000\n        /* \"#utility.yul\":1216:1234   */\n      0x44\n      dup3\n      add\n        /* \"#utility.yul\":1209:1261   */\n      mstore\n        /* \"#utility.yul\":1278:1296   */\n      0x64\n      add\n        /* \"@openzeppelin/contracts/proxy/Clones.sol\":1668:1725  require(instance != address(0), \"ERC1167: create failed\") */\n      tag_16\n        /* \"#utility.yul\":956:1302   */\n      jump\n        /* \"@openzeppelin/contracts/proxy/Clones.sol\":1668:1725  require(instance != address(0), \"ERC1167: create failed\") */\n    tag_26:\n        /* \"@openzeppelin/contracts/proxy/Clones.sol\":973:1732  function clone(address implementation) internal returns (address instance) {... */\n      swap2\n      swap1\n      pop\n      jump\t// out\n        /* \"#utility.yul\":14:194   */\n    tag_7:\n        /* \"#utility.yul\":73:79   */\n      0x00\n        /* \"#utility.yul\":126:128   */\n      0x20\n        /* \"#utility.yul\":114:123   */\n      dup3\n        /* \"#utility.yul\":105:112   */\n      dup5\n        /* \"#utility.yul\":101:124   */\n      sub\n        /* \"#utility.yul\":97:129   */\n      slt\n        /* \"#utility.yul\":94:146   */\n      iszero\n      tag_31\n      jumpi\n        /* \"#utility.yul\":142:143   */\n      0x00\n        /* \"#utility.yul\":139:140   */\n      dup1\n        /* \"#utility.yul\":132:144   */\n      revert\n        /* \"#utility.yul\":94:146   */\n    tag_31:\n      pop\n        /* \"#utility.yul\":165:188   */\n      calldataload\n      swap2\n        /* \"#utility.yul\":14:194   */\n      swap1\n      pop\n      jump\t// out\n\n    auxdata: 0xa26469706673582212202352b6e27be10bc63d23b51a610574708f7bd48d1b9b1789fb595b53375059c164736f6c63430008150033\n}\n",
				"bytecode": {
					"linkReferences": {},
					"object": "608060405234801561001057600080fd5b5060405161040d38038061040d83398101604081905261002f91610054565b600080546001600160a01b0319166001600160a01b0392909216919091179055610084565b60006020828403121561006657600080fd5b81516001600160a01b038116811461007d57600080fd5b9392505050565b61037a806100936000396000f3fe608060405234801561001057600080fd5b50600436106100365760003560e01c80630b9d58471461003b578063b1f6ca751461009a575b600080fd5b61007161004936600461032b565b60016020526000908152604090205473ffffffffffffffffffffffffffffffffffffffff1681565b60405173ffffffffffffffffffffffffffffffffffffffff909116815260200160405180910390f35b6100ad6100a836600461032b565b6100af565b005b60008181526001602052604090205473ffffffffffffffffffffffffffffffffffffffff1615610140576040517f08c379a000000000000000000000000000000000000000000000000000000000815260206004820152600f60248201527f45786368616e676520657869737473000000000000000000000000000000000060448201526064015b60405180910390fd5b600080546101639073ffffffffffffffffffffffffffffffffffffffff16610263565b6040517ffe4b84df0000000000000000000000000000000000000000000000000000000081526004810184905290915073ffffffffffffffffffffffffffffffffffffffff82169063fe4b84df90602401600060405180830381600087803b1580156101ce57600080fd5b505af11580156101e2573d6000803e3d6000fd5b50505060008381526001602052604080822080547fffffffffffffffffffffffff00000000000000000000000000000000000000001673ffffffffffffffffffffffffffffffffffffffff8616908117909155905185935090917fe80b559cc46e6c0e51671c54b80c5558a517894ed00e34777fddfcfaf99a21b191a35050565b6000763d602d80600a3d3981f3363d3d373d3d3d363d730000008260601b60e81c176000526e5af43d82803e903d91602b57fd5bf38260781b17602052603760096000f0905073ffffffffffffffffffffffffffffffffffffffff8116610326576040517f08c379a000000000000000000000000000000000000000000000000000000000815260206004820152601660248201527f455243313136373a20637265617465206661696c6564000000000000000000006044820152606401610137565b919050565b60006020828403121561033d57600080fd5b503591905056fea26469706673582212202352b6e27be10bc63d23b51a610574708f7bd48d1b9b1789fb595b53375059c164736f6c63430008150033",
					"opcodes": "PUSH1 0x80 PUSH1 0x40 MSTORE CALLVALUE DUP1 ISZERO PUSH2 0x10 JUMPI PUSH1 0x0 DUP1 REVERT JUMPDEST POP PUSH1 0x40 MLOAD PUSH2 0x40D CODESIZE SUB DUP1 PUSH2 0x40D DUP4 CODECOPY DUP2 ADD PUSH1 0x40 DUP2 SWAP1 MSTORE PUSH2 0x2F SWAP2 PUSH2 0x54 JUMP JUMPDEST PUSH1 0x0 DUP1 SLOAD PUSH1 0x1 PUSH1 0x1 PUSH1 0xA0 SHL SUB NOT AND PUSH1 0x1 PUSH1 0x1 PUSH1 0xA0 SHL SUB SWAP3 SWAP1 SWAP3 AND SWAP2 SWAP1 SWAP2 OR SWAP1 SSTORE PUSH2 0x84 JUMP JUMPDEST PUSH1 0x0 PUSH1 0x20 DUP3 DUP5 SUB SLT ISZERO PUSH2 0x66 JUMPI PUSH1 0x0 DUP1 REVERT JUMPDEST DUP2 MLOAD PUSH1 0x1 PUSH1 0x1 PUSH1 0xA0 SHL SUB DUP2 AND DUP2 EQ PUSH2 0x7D JUMPI PUSH1 0x0 DUP1 REVERT JUMPDEST SWAP4 SWAP3 POP POP POP JUMP JUMPDEST PUSH2 0x37A DUP1 PUSH2 0x93 PUSH1 0x0 CODECOPY PUSH1 0x0 RETURN INVALID PUSH1 0x80 PUSH1 0x40 MSTORE CALLVALUE DUP1 ISZERO PUSH2 0x10 JUMPI PUSH1 0x0 DUP1 REVERT JUMPDEST POP PUSH1 0x4 CALLDATASIZE LT PUSH2 0x36 JUMPI PUSH1 0x0 CALLDATALOAD PUSH1 0xE0 SHR DUP1 PUSH4 0xB9D5847 EQ PUSH2 0x3B JUMPI DUP1 PUSH4 0xB1F6CA75 EQ PUSH2 0x9A JUMPI JUMPDEST PUSH1 0x0 DUP1 REVERT JUMPDEST PUSH2 0x71 PUSH2 0x49 CALLDATASIZE PUSH1 0x4 PUSH2 0x32B JUMP JUMPDEST PUSH1 0x1 PUSH1 0x20 MSTORE PUSH1 0x0 SWAP1 DUP2 MSTORE PUSH1 0x40 SWAP1 KECCAK256 SLOAD PUSH20 0xFFFFFFFFFFFFFFFFFFFFFFFFFFFFFFFFFFFFFFFF AND DUP2 JUMP JUMPDEST PUSH1 0x40 MLOAD PUSH20 0xFFFFFFFFFFFFFFFFFFFFFFFFFFFFFFFFFFFFFFFF SWAP1 SWAP2 AND DUP2 MSTORE PUSH1 0x20 ADD PUSH1 0x40 MLOAD DUP1 SWAP2 SUB SWAP1 RETURN JUMPDEST PUSH2 0xAD PUSH2 0xA8 CALLDATASIZE PUSH1 0x4 PUSH2 0x32B JUMP JUMPDEST PUSH2 0xAF JUMP JUMPDEST STOP JUMPDEST PUSH1 0x0 DUP2 DUP2 MSTORE PUSH1 0x1 PUSH1 0x20 MSTORE PUSH1 0x40 SWAP1 KECCAK256 SLOAD PUSH20 0xFFFFFFFFFFFFFFFFFFFFFFFFFFFFFFFFFFFFFFFF AND ISZERO PUSH2 0x140 JUMPI PUSH1 0x40 MLOAD PUSH32 0x8C379A000000000000000000000000000000000000000000000000000000000 DUP2 MSTORE PUSH1 0x20 PUSH1 0x4 DUP3 ADD MSTORE PUSH1 0xF PUSH1 0x24 DUP3 ADD MSTORE PUSH32 0x45786368616E6765206578697374730000000000000000000000000000000000 PUSH1 0x44 DUP3 ADD MSTORE PUSH1 0x64 ADD JUMPDEST PUSH1 0x40 MLOAD DUP1 SWAP2 SUB SWAP1 REVERT JUMPDEST PUSH1 0x0 DUP1 SLOAD PUSH2 0x163 SWAP1 PUSH20 0xFFFFFFFFFFFFFFFFFFFFFFFFFFFFFFFFFFFFFFFF AND PUSH2 0x263 JUMP JUMPDEST PUSH1 0x40 MLOAD PUSH32 0xFE4B84DF00000000000000000000000000000000000000000000000000000000 DUP2 MSTORE PUSH1 0x4 DUP2 ADD DUP5 SWAP1 MSTORE SWAP1 SWAP2 POP PUSH20 0xFFFFFFFFFFFFFFFFFFFFFFFFFFFFFFFFFFFFFFFF DUP3 AND SWAP1 PUSH4 0xFE4B84DF SWAP1 PUSH1 0x24 ADD PUSH1 0x0 PUSH1 0x40 MLOAD DUP1 DUP4 SUB DUP2 PUSH1 0x0 DUP8 DUP1 EXTCODESIZE ISZERO DUP1 ISZERO PUSH2 0x1CE JUMPI PUSH1 0x0 DUP1 REVERT JUMPDEST POP GAS CALL ISZERO DUP1 ISZERO PUSH2 0x1E2 JUMPI RETURNDATASIZE PUSH1 0x0 DUP1 RETURNDATACOPY RETURNDATASIZE PUSH1 0x0 REVERT JUMPDEST POP POP POP PUSH1 0x0 DUP4 DUP2 MSTORE PUSH1 0x1 PUSH1 0x20 MSTORE PUSH1 0x40 DUP1 DUP3 KECCAK256 DUP1 SLOAD PUSH32 0xFFFFFFFFFFFFFFFFFFFFFFFF0000000000000000000000000000000000000000 AND PUSH20 0xFFFFFFFFFFFFFFFFFFFFFFFFFFFFFFFFFFFFFFFF DUP7 AND SWAP1 DUP2 OR SWAP1 SWAP2 SSTORE SWAP1 MLOAD DUP6 SWAP4 POP SWAP1 SWAP2 PUSH32 0xE80B559CC46E6C0E51671C54B80C5558A517894ED00E34777FDDFCFAF99A21B1 SWAP2 LOG3 POP POP JUMP JUMPDEST PUSH1 0x0 PUSH23 0x3D602D80600A3D3981F3363D3D373D3D3D363D73000000 DUP3 PUSH1 0x60 SHL PUSH1 0xE8 SHR OR PUSH1 0x0 MSTORE PUSH15 0x5AF43D82803E903D91602B57FD5BF3 DUP3 PUSH1 0x78 SHL OR PUSH1 0x20 MSTORE PUSH1 0x37 PUSH1 0x9 PUSH1 0x0 CREATE SWAP1 POP PUSH20 0xFFFFFFFFFFFFFFFFFFFFFFFFFFFFFFFFFFFFFFFF DUP2 AND PUSH2 0x326 JUMPI PUSH1 0x40 MLOAD PUSH32 0x8C379A000000000000000000000000000000000000000000000000000000000 DUP2 MSTORE PUSH1 0x20 PUSH1 0x4 DUP3 ADD MSTORE PUSH1 0x16 PUSH1 0x24 DUP3 ADD MSTORE PUSH32 0x455243313136373A20637265617465206661696C656400000000000000000000 PUSH1 0x44 DUP3 ADD MSTORE PUSH1 0x64 ADD PUSH2 0x137 JUMP JUMPDEST SWAP2 SWAP1 POP JUMP JUMPDEST PUSH1 0x0 PUSH1 0x20 DUP3 DUP5 SUB SLT ISZERO PUSH2 0x33D JUMPI PUSH1 0x0 DUP1 REVERT JUMPDEST POP CALLDATALOAD SWAP2 SWAP1 POP JUMP INVALID LOG2 PUSH5 0x6970667358 0x22 SLT KECCAK256 0x23 MSTORE 0xB6 0xE2 PUSH28 0xE10BC63D23B51A610574708F7BD48D1B9B1789FB595B53375059C164 PUSH20 0x6F6C634300081500330000000000000000000000 "
				},
				"gasEstimates": {
					"creation": {
						"codeDepositCost": "178000",
						"executionCost": "infinite",
						"totalCost": "infinite"
					},
					"external": {
						"createExchange(uint256)": "infinite",
						"getExchange(uint256)": "2419"
					}
				},
				"methodIdentifiers": {
					"createExchange(uint256)": "b1f6ca75",
					"getExchange(uint256)": "0b9d5847"
				}
			},
			"storageLayout": {
				"storage": [
					{
						"astId": 90,
						"contract": "packages/hardhat/contracts/S33DB4NK/S33DxCH4NG3Factory.sol:S33DxCH4NG3Factory",
						"label": "_exchangeImplementation",
						"offset": 0,
						"slot": "0",
						"type": "t_address"
					},
					{
						"astId": 94,
						"contract": "packages/hardhat/contracts/S33DB4NK/S33DxCH4NG3Factory.sol:S33DxCH4NG3Factory",
						"label": "getExchange",
						"offset": 0,
						"slot": "1",
						"type": "t_mapping(t_uint256,t_address)"
					}
				],
				"types": {
					"t_address": {
						"encoding": "inplace",
						"label": "address",
						"numberOfBytes": "20"
					},
					"t_mapping(t_uint256,t_address)": {
						"encoding": "mapping",
						"key": "t_uint256",
						"label": "mapping(uint256 => address)",
						"numberOfBytes": "32",
						"value": "t_address"
					},
					"t_uint256": {
						"encoding": "inplace",
						"label": "uint256",
						"numberOfBytes": "32"
					}
				}
			},
			"userdoc": {
				"kind": "user",
				"methods": {},
				"version": 1
			}
		}
	}
}